{
  "transactions": [
    {
      "hash": "0xf3fcd78cd0a3061410351b89eb3bec1cf950d98e40a2a71f5f2a45428ea8cc24",
      "transactionType": "CALL",
      "contractName": null,
      "contractAddress": "0xc684ef73a0522046c6f5b4d9db42012e623ebcc1",
      "function": "setCurator(address)",
      "arguments": [
        "0xB5ea370779Ec64a2E7d68640f7457249d7cf7eB7"
      ],
      "transaction": {
        "from": "0xb5ea370779ec64a2e7d68640f7457249d7cf7eb7",
        "to": "0xc684ef73a0522046c6f5b4d9db42012e623ebcc1",
        "gas": "0x10823",
        "value": "0x0",
        "input": "0xe90956cf000000000000000000000000b5ea370779ec64a2e7d68640f7457249d7cf7eb7",
        "nonce": "0x5",
        "chainId": "0x2105"
      },
      "additionalContracts": [],
      "isFixedGasLimit": false
    },
    {
      "hash": "0x2386cb0d85a9820597c4677c61a0a76dfcf16d4992913c43fb7e50b846b161a1",
      "transactionType": "CALL",
      "contractName": null,
      "contractAddress": "0xc684ef73a0522046c6f5b4d9db42012e623ebcc1",
      "function": "multicall(bytes[])",
      "arguments": [
        "[0xef7fa71b0000000000000000000000000000000000000000000000000000000000000020000000000000000000000000000000000000000000000000000000000000002460d54d410000000000000000000000005c6456672f488cef46357aa1fa611cc97017c55c00000000000000000000000000000000000000000000000000000000, 0x60d54d410000000000000000000000005c6456672f488cef46357aa1fa611cc97017c55c]"
      ],
      "transaction": {
        "from": "0xb5ea370779ec64a2e7d68640f7457249d7cf7eb7",
        "to": "0xc684ef73a0522046c6f5b4d9db42012e623ebcc1",
        "gas": "0x28d1c",
        "value": "0x0",
        "input": "0xac9650d800000000000000000000000000000000000000000000000000000000000000200000000000000000000000000000000000000000000000000000000000000002000000000000000000000000000000000000000000000000000000000000004000000000000000000000000000000000000000000000000000000000000001000000000000000000000000000000000000000000000000000000000000000084ef7fa71b0000000000000000000000000000000000000000000000000000000000000020000000000000000000000000000000000000000000000000000000000000002460d54d410000000000000000000000005c6456672f488cef46357aa1fa611cc97017c55c0000000000000000000000000000000000000000000000000000000000000000000000000000000000000000000000000000000000000000000000000000000000000000000000000000000000000000000000000000002460d54d410000000000000000000000005c6456672f488cef46357aa1fa611cc97017c55c00000000000000000000000000000000000000000000000000000000",
        "nonce": "0x6",
        "chainId": "0x2105"
      },
      "additionalContracts": [],
      "isFixedGasLimit": false
    }
  ],
  "receipts": [
    {
      "status": "0x1",
      "cumulativeGasUsed": "0x19f6432",
      "logs": [
        {
          "address": "0xc684ef73a0522046c6f5b4d9db42012e623ebcc1",
          "topics": [
            "0xbd0a63c12948fbc9194a5839019f99c9d71db924e5c70018265bc778b8f1a506",
            "0x000000000000000000000000b5ea370779ec64a2e7d68640f7457249d7cf7eb7"
          ],
          "data": "0x",
          "blockHash": "0x1b3c89567e0666597596bc77619dc36fdf760bc3cb7e5454f2903406d7ef79da",
          "blockNumber": "0x245b177",
          "transactionHash": "0xf3fcd78cd0a3061410351b89eb3bec1cf950d98e40a2a71f5f2a45428ea8cc24",
          "transactionIndex": "0x59",
          "logIndex": "0xdc",
          "removed": false
        }
      ],
      "logsBloom": "0x00000000000000000000000000000000000000000000000000000000000000000000000000000000000000000000000000000000000000000000000000000000000000000000000000000000000000010000000000000000000000000000000000000000000000000001000000000000000000000000000000000000000000020000000000000000000000000000000000000000000000000000000004000010000000000000000000000000000000020000000000000000000000000000000000000000000000000000000000000000000000000000000000000400000000000000000000000000000000000000008000000000000000400000000000000000",
      "type": "0x2",
      "transactionHash": "0xf3fcd78cd0a3061410351b89eb3bec1cf950d98e40a2a71f5f2a45428ea8cc24",
      "transactionIndex": "0x59",
      "blockHash": "0x1b3c89567e0666597596bc77619dc36fdf760bc3cb7e5454f2903406d7ef79da",
      "blockNumber": "0x245b177",
      "gasUsed": "0xbf3c",
      "effectiveGasPrice": "0x298235",
      "from": "0xb5ea370779ec64a2e7d68640f7457249d7cf7eb7",
      "to": "0xc684ef73a0522046c6f5b4d9db42012e623ebcc1",
      "contractAddress": null,
      "l1BaseFeeScalar": "0x8dd",
      "l1BlobBaseFee": "0x11dd",
      "l1BlobBaseFeeScalar": "0x101c12",
      "l1Fee": "0x10af8f31",
      "l1GasPrice": "0x4969448",
      "l1GasUsed": "0x640"
    },
    {
      "status": "0x1",
      "cumulativeGasUsed": "0x1a122c5",
      "logs": [
        {
          "address": "0xc684ef73a0522046c6f5b4d9db42012e623ebcc1",
          "topics": [
            "0x8b18afeb361b83b025999ed5b42f1d90c68aaa5a0fd49c015f04c3b8b81e80eb",
            "0x60d54d4100000000000000000000000000000000000000000000000000000000"
          ],
          "data": "0x0000000000000000000000000000000000000000000000000000000000000040000000000000000000000000000000000000000000000000000000006915bfd1000000000000000000000000000000000000000000000000000000000000002460d54d410000000000000000000000005c6456672f488cef46357aa1fa611cc97017c55c00000000000000000000000000000000000000000000000000000000",
          "blockHash": "0x53f08f33f50d2725d3d2b9dd1c0b0503e40343fe2ed453346f56f78216cf4c13",
          "blockNumber": "0x245b177",
          "blockTimestamp": "0x6915bfd1",
          "transactionHash": "0x2386cb0d85a9820597c4677c61a0a76dfcf16d4992913c43fb7e50b846b161a1",
          "transactionIndex": "0x5a",
          "logIndex": "0xdd",
          "removed": false
        },
        {
          "address": "0xc684ef73a0522046c6f5b4d9db42012e623ebcc1",
          "topics": [
            "0x29aa42fc192ff77ef42105abba283197ac841341e196e417a7fc2784cdc4e5fb",
            "0x60d54d4100000000000000000000000000000000000000000000000000000000"
          ],
          "data": "0x0000000000000000000000000000000000000000000000000000000000000020000000000000000000000000000000000000000000000000000000000000002460d54d410000000000000000000000005c6456672f488cef46357aa1fa611cc97017c55c00000000000000000000000000000000000000000000000000000000",
          "blockHash": "0x53f08f33f50d2725d3d2b9dd1c0b0503e40343fe2ed453346f56f78216cf4c13",
          "blockNumber": "0x245b177",
          "blockTimestamp": "0x6915bfd1",
          "transactionHash": "0x2386cb0d85a9820597c4677c61a0a76dfcf16d4992913c43fb7e50b846b161a1",
          "transactionIndex": "0x5a",
          "logIndex": "0xde",
          "removed": false
        },
        {
          "address": "0xc684ef73a0522046c6f5b4d9db42012e623ebcc1",
          "topics": [
            "0x8f125a24838c4c23e893904b255b5c672d43d4cb8af7e3d15841eaeabc1e68aa",
            "0x0000000000000000000000005c6456672f488cef46357aa1fa611cc97017c55c"
          ],
          "data": "0x",
          "blockHash": "0x53f08f33f50d2725d3d2b9dd1c0b0503e40343fe2ed453346f56f78216cf4c13",
          "blockNumber": "0x245b177",
          "blockTimestamp": "0x6915bfd1",
          "transactionHash": "0x2386cb0d85a9820597c4677c61a0a76dfcf16d4992913c43fb7e50b846b161a1",
          "transactionIndex": "0x5a",
          "logIndex": "0xdf",
          "removed": false
        }
      ],
      "logsBloom": "0x00000000000000400000000000000000000000000000000100000000000000000000000000100000000000000000000000000000000000000000000000000000000000000000000000000000000000010000000000000000000000000001000000100000200000000000000000000000000000000000000000000000140000000000000000000000000000000000000000000000000000000000000000000010000000000000000000000000000000000000000000000800100000000000000800000400000000000000001000000000000000000000000000000480000000000000400000000000000000000000000000000000000000000000000000000000",
      "type": "0x2",
      "transactionHash": "0x2386cb0d85a9820597c4677c61a0a76dfcf16d4992913c43fb7e50b846b161a1",
      "transactionIndex": "0x5a",
      "blockHash": "0x53f08f33f50d2725d3d2b9dd1c0b0503e40343fe2ed453346f56f78216cf4c13",
      "blockNumber": "0x245b177",
      "gasUsed": "0x1be93",
      "effectiveGasPrice": "0x298235",
      "from": "0xb5ea370779ec64a2e7d68640f7457249d7cf7eb7",
      "to": "0xc684ef73a0522046c6f5b4d9db42012e623ebcc1",
      "contractAddress": null,
      "l1BaseFeeScalar": "0x8dd",
      "l1BlobBaseFee": "0x11dd",
      "l1BlobBaseFeeScalar": "0x101c12",
      "l1Fee": "0x19b1dafc",
      "l1GasPrice": "0x4969448",
      "l1GasUsed": "0x81b"
    }
  ],
  "libraries": [],
  "pending": [],
  "returns": {},
  "timestamp": 1763033042512,
  "chain": 8453,
  "commit": "ffa6cd7"
}